:100000000C94752E0C94A62E0C94A62E0C94A62E51
:100010000C94A62E0C94A62E0C94A62E0D94941C33
:100020000C94A62E0C94A62E0C94A62E0C94A62E00
:100030000C94A62E0C94A62E0C94A62E0D943CA6E1
:100040000C94A62E0C94A62E0C94A62E0C94A62EE0
:100050000C94A62E0C94A62E0C94A62E0D9431274B
:100060000C94A62E0D943B1D0D946A1D0C94A62E87
:100070000C94A62E0C94A62E0C94A62E0C94A62EB0
:100080000C94A62E0C94A62E0C94A62E0C94A62EA0
:100090000D94A51D0D94D41D0C94A62E0D947521C0
:1000A0000C94A62E0D9469A60C94A62E0C94A62E44
:1000B0000C94A62E0C94A62E0D9496A60C94A62E07
:1000C0000C94A62E0C94A62E0C94A62E0D940F1E06
:1000D0000D943E1E0C94A62E0C94A62E0C94A62EC7
:1000E0000C94A62EFD30023107310C31113116313E
:1000F0001B31203125312A312F31393134313E3114
:10010000686B6B6B6E6B716B746B776B7A6B7D6B03
:10011000816BDA728172C2728A72A472C272DA72EE
:10012000C272DA72C77223781C782A782E784F78D8
:1001300041785A783A7848785678617868787C7847
:1001400088782B7FB8818F7F447F5D7FA07FD37FAE
:10015000B881C1808C80B8812880B881C27FB88185
:10016000B881D980F2800B81B881767F418073801D
:10017000B8819F80B17FB8815A80B8812481358150
:100180004681B881F57F06801780E47F5F818F818B
:10019000B080A8813B824B824E825C824C839C82E1
:1001A0004C831C8321832A8333834B823B834C8380
:1001B0004783618316840C8541859285EA85F7859E
:1001C0003386E686C086A688BE88C688AE88B6888E
:1001D000CE880E89EE88E688DE88F688FE88068955
:1001E000D68853892889168939894089478953894E
:1001F0004E89158B338B488B3A8DA78B0F8C7E8B5A
:10020000BC8B3A8D3A8D3A8D3A8D3A8D3A8D3A8D36
:100210003A8D3A8D3A8D3A8D3A8D3A8D3A8D3A8DA6
:100220003A8D3D8C3A8D4E8C518C568CA7A0C5A032
:10023000CAA0D1A0D6A045ADDDA045AD45AD45AD28
:10024000E2A0E9A0EEA06D2BA92D7B2D692DA52B99
:10025000E52B612B812DB52CC12B412D6D2CA52CAF
:10026000552D492B4F2A732A052DD32AB92CA72B9C
:100270008B2A6F2D152B5F2E012C9B2D9B2D0D2B6B
:100280000D2B0D2BCF2BCF2BCF2BED2DA12CA12C5C
:100290005D2D292A612D792C512DAF2A312BB92AB8
:1002A000C52D5D2AB32C032C1F2B8F2D6F2C5D2E9B
:1002B0009B2AB72D992CB32B652AD52C672BCD2DD6
:1002C000A12DD52AC72CEF2AFD2A192CAD2C272ABF
:1002D000652ECB2B872CF92A172B3D2E2F2E892DFF
:1002E0004F2DBF2B552E232ED52DC12C0F2B012E7C
:1002F000912B5D2B252E632D532E352C3B2A7D2CE7
:100300008B2B152E272B852B592D332B3B2CC92BB3
:10031000872AE12A7F2B9B2B832D132C692BD32D2E
:10032000832C2D2A192D992BD92A152C072DFD2B1D
:10033000792B632E232DDD2C632E232DDD2C632EB4
:10034000232DDD2C5F2A8F2C8F2C5F2A5F2A8F2C88
:100350008F2C5F2A5F2A5F2A5F2ABD2DA92BBF2D14
:10036000432DBF2DBF2D3F2BD12DBF2DBF2D772B63
:10037000E72B952ABF2DBF2DBF2DBF2DBF2DBF2D24
:10038000BF2DBF2DBF2DBF2DBF2D872BBF2DBF2D47
:10039000BF2DBF2DBF2DBF2DBF2D652DE52ABF2D34
:1003A000CB2AF32CBF2DE32CEF2CBF2DBF2DBF2D5F
:1003B000BF2DAB2DF12BF12B192BC72B412E452C2B
:1003C000C72AF32D292D272D036EDB363D9A9999E7
:1003D000993DABAAAA2A3E000000803F084AD73BBD
:1003E0003BCE016E84BCBFFDC12F3D6C74319ABD04
:1003F00056833DDA3D00C77F11BED9E4BB4C3E9128
:100400006BAAAABE000000803F072C7AA5BA6CC573
:1004100090DA3B9365FC8BBC53F810FD3C569283FD
:100420004DBD879D3AB63DCBC9BF5BBE73DA0FC9E0
:100430003F05A84CCDB2D44EB93836A9020C50B9FC
:10044000918688083CA6AAAA2ABE000000803F0820
:10045000000000BE922449123EABAAAA2ABECDCC0F
:10046000CC4C3E00000080BEABAAAAAA3E00000011
:1004700000BF000000803F0000000000084178D36A
:10048000BB4387D1133D190E3CC3BD4282AD2B3E09
:1004900068EC8276BED98FE1A93E4C80EFFFBE01A9
:1004A000C4FF7F3F00000000000664EC1B3C04BC5E
:1004B000163E3BE5B93CC93C37C29E5A3D6604989E
:1004C000083EEA69AAAA3E000000803F0253595341
:1004D00049445F53575F4D524556000000000013DA
:1004E00007000000000153595349445F53575F54BC
:1004F000595045000000000115070000204102533B
:10050000595349445F544849534D41560000000037
:100510007016070000803F0253595349445F4D59FC
:1005200047435300000000000071180700007F439C
:100530000153455249414C335F424155440000004C
:100540000000721A07000064420154454C454D5F9B
:1005500044454C4159000000000000731B07000097
:1005600000000252544C5F414C5400000000000057
:1005700000000000A01C070080BB4401534F4E4107
:10058000525F454E41424C450000000000941E075A
:100590000000000001534F4E41525F545950450036
:1005A0000000000000009A1F070000000004534FE5
:1005B0004E41525F4741494E000000000000001EBE
:1005C00020070000004001424154545F4D4F4E4906
:1005D000544F5200000000008D240700000000016D
:1005E00046535F424154545F454E41424C450000E2
:1005F00000C12F07000000000146535F4750535FC2
:10060000454E41424C4500000000C33007000080C9
:100610003F0146535F4743535F454E41424C4500BF
:10062000000000C6310700000000024750535F4839
:10063000444F505F474F4F440000000023320700F3
:1006400000484304564F4C545F4449564944455270
:1006500000000000008E25070AD7634004414D507A
:100660005F5045525F564F4C5400000000008F29E8
:10067000075C8FDA4102424154545F434150414389
:1006800049545900000000912D0700C05A45014D02
:1006900041475F454E41424C4500000000000000CC
:1006A0009234070000803F01464C4F575F454E4152
:1006B000424C450000000000009635070000000095
:1006C000044C4F575F564F4C540000000000000090
:1006D0000000973607000028410153555045525FEE
:1006E00053494D504C4500000000009B3A07000064
:1006F00000000252544C5F414C545F46494E414CFD
:1007000000000000A33B07000000000142415454D8
:100710005F564F4C545F50494E00000000A83E0702
:100720000000803F01424154545F435552525F5094
:10073000494E00000000A93F07000000400152534D
:1007400053495F50494E00000000000000000018AF
:100750004007000080BF0157505F5941575F424535
:10076000484156494F5200001A410700000040011D
:1007700057505F544F54414C0000000000000000EF
:1007800000D34407000000000157505F494E444524
:1007900058000000000000000000D44507000000E1
:1007A0000002434952434C455F524144495553006E
:1007B000000000D746070000204104434952434C43
:1007C000455F524154450000000000001D480700ED
:1007D00000A0410352544C5F4C4F49545F54494D63
:1007E0004500000000A24C0700409C45024C414ED1
:1007F000445F535045454400000000000000D950BC
:1008000007000048420250494C4F545F56454C5A2D
:100810005F4D41580000001C520700007A4302540B
:1008200048525F4D494E00000000000000000000EB
:10083000B4540700000243025448525F4D4158002F
:10084000000000000000000000B5560700007A44D8
:100850000146535F5448525F454E41424C450000AB
:100860000000B65807000000000246535F5448528B
:100870005F56414C55450000000000B8590700C0C4
:100880007344025452494D5F5448524F54544C459E
:1008900000000000B95B070000E143025448525FCA
:1008A0004D494400000000000000000000C25D0748
:1008B0000000FA4301464C544D4F444531000000BE
:1008C000000000000000C85F070000000001464C67
:1008D000544D4F444532000000000000000000C9A4
:1008E00060070000000001464C544D4F4445330062
:1008F0000000000000000000CA61070000000001C5
:10090000464C544D4F4445340000000000000000A8
:1009100000CB62070000000001464C544D4F444597
:1009200035000000000000000000CC63070000005C
:100930000001464C544D4F44453600000000000075
:10094000000000CD6407000000000153494D504CE9
:10095000450000000000000000000000CE65070018
:10096000000000024C4F475F4249544D41534B0039
:10097000000000000014660700804F4401544F59E6
:100980005F5241544500000000000000000016685E
:10099000070000803F0145534300000000000000B5
:1009A00000000000000000BA6907000000000154C8
:1009B000554E45000000000000000000000000004F
:1009C000BB6A07000000000254554E455F4C4F576C
:1009D000000000000000000000BD6D0700000000E6
:1009E0000254554E455F484947480000000000004A
:1009F0000000BC6B0700007A44014652414D45009F
:100A00000000000000000000000000956F070000DB
:100A1000803F014348375F4F505400000000000002
:100A2000000000009870070000E040014348385F74
:100A30004F5054000000000000000000001F71072C
:100A4000000000000141524D494E475F4348454375
:100A50004B00000000002072070000803F02414E62
:100A6000474C455F4D415800000000000000002247
:100A7000420700A08C45085243315F00000000008F
:100A80000000000000000000AA7307F851000008F1
:100A90005243325F00000000000000000000000030
:100AA00000AB9007F8510000085243335F0000008C
:100AB00000000000000000000000ACAD07F851008D
:100AC00000085243345F00000000000000000000F6
:100AD000000000ADCA07F8510000085243355F001E
:100AE000000000000000000000000000AEE707ADBD
:100AF000510000085243365F000000000000000073
:100B00000000000000AF0508AD5100000852433757
:100B10005F00000000000000000000000000B023A3
:100B200008AD510000085243385F0000000000008B
:100B300000000000000000B14108AD510000085263
:100B40004331305F000000000000000000000000A2
:100B5000B25F08AD51000008524331315F00000020
:100B6000000000000000000000B37D08AD5100004F
:100B70000252435F5350454544000000000000000E
:100B80000000C09B080000F543044143524F5F52F0
:100B9000505F500000000000000000DD9D080000D4
:100BA0009040044143524F5F5941575F500000004D
:100BB00000000000F4A10800009040044143524F9F
:100BC0005F42414C5F524F4C4C00000000F2A508C0
:100BD0000000803F044143524F5F42414C5F504907
:100BE000544348000000F3A9080000803F0141433E
:100BF000524F5F545241494E455200000000001BC5
:100C0000AD0800000040014C45445F4D4F44450095
:100C100000000000000000009E3D07000010410899
:100C2000524154455F524C4C5F00000000000000F0
:100C300000DFAE083D2C000008524154455F50498A
:100C4000545F0000000000000000E0C8083D2C00D8
:100C50000008524154455F5941575F0000000000B1
:100C6000000000E1E2083D2C0000084C4F495445CB
:100C7000525F4C41545F000000000000E7FC083D5B
:100C80002C0000084C4F495445525F4C4F4E5F00BA
:100C90000000000000E816093D2C000008544852EE
:100CA0005F524154455F0000000000000000EC303E
:100CB000093D2C0000085448525F414343454C5FB6
:100CC00000000000000000F14A093D2C0000084F20
:100CD000465F524C4C5F0000000000000000000026
:100CE000ED64093D2C0000084F465F5049545F00F9
:100CF000000000000000000000EE7E093D2C000016
:100D0000085354425F524C4C5F000000000000004A
:100D10000000E2B409692D0000085354425F5049B5
:100D2000545F000000000000000000E3C209692DCC
:100D30000000085354425F5941575F000000000013
:100D400000000000E4D009692D0000085448525FFB
:100D5000414C545F000000000000000000EBDE0981
:100D6000692D000008484C445F4C41545F0000006E
:100D7000000000000000E59809692D000008484CBB
:100D8000445F4C4F4E5F000000000000000000E692
:100D9000A609692D00000843414D5F0000000000D6
:100DA0000000000000000000A5A4110A32000008A5
:100DB00052454C41595F0000000000000000000057
:100DC000000D9D11A34E000008434F4D5041535359
:100DD0005F00000000000000000093A60DC032007C
:100DE0000008494E535F00000000000000000000B2
:100DF000000000035A0DCA3F000008494E41565FEB
:100E00000000000000000000000000006474107F7B
:100E10003F00000857504E41565F000000000000A0
:100E2000000000000065A70BBA2C000008535230E8
:100E30005F000000000000000000000000006E0FD6
:100E40000F3F0F0000085352335F00000000000006
:100E5000000000000000006F610F3F0F000008411C
:100E60004852535F00000000000000000000000036
:100E70009F0A0ACD2D0000084D4E545F000000006F
:100E8000000000000000000000A6B80F044C0000A5
:100E900008474E445F000000000000000000000012
:100EA00000000B880EC72E00000853434845445FDE
:100EB00000000000000000000000000CF409D54E06
:100EC00000000846454E43455F000000000000005A
:100ED00000000000455F068E2B0000084750534776
:100EE0004C495443485F0000000000000046C01118
:100EF000783C0000084D4F545F00000000000000E7
:100F00000000000000005A880C5C4B0000085243AF
:100F10004D41505F0000000000000000000000C7CD
:100F2000D811264E00000000000000000000000064
:100F300000000000000000000000000000000002AF
:100F4000005241575F53454E53000000000000001F
:100F5000000032000000000002014558545F535465
:100F600041540000000000000000003400000000B8
:100F700000020252435F4348414E0000000000005F
:100F80000000000036000000000002035241575FDD
:100F90004354524C000000000000000000380000E4
:100FA0000000000204504F534954494F4E000000C6
:100FB0000000000000003A00000000000205455853
:100FC0005452413100000000000000000000003CCD
:100FD0000000000000020645585452413200000053
:100FE00000000000000000003E00000000000207BA
:100FF000455854524133000000000000000000003A
:10100000004000000000000208504152414D5300D2
:10101000000000000000000000004200000000008E
:1010200000FF0000000000000000000000000000C1
:10103000000000000000000000BF9C02008403E4E8
:101040005C01009001DDAF0200BC02BF390A00E87C
:101050000320700200B603FD890A002003387E0ACF
:1010600000F401BCAE0200BC0226906400BC020683
:10107000900200DC0523900200B004FC3A0200BCA0
:1010800002A92E020084031D9F64004C047C4302CD
:10109000006400E670E803F401504552463A20250A
:1010A000752F257520256C750A0050726541726D8B
:1010B0003A205243206E6F742063616C69627261E2
:1010C0007465640050726541726D3A20436837263A
:1010D000436838204F70742063616E6E6F742062B5
:1010E000652073616D650050726541726D3A2049EB
:1010F0004E53206E6F742063616C69627261746517
:10110000640050726541726D3A20436F6D70617377
:1011100073206E6F74206865616C7468790050721A
:101120006541726D3A20436F6D70617373206E6F0D
:10113000742063616C6962726174656400507265E9
:1011400041726D3A20436F6D70617373206F6666F4
:101150007365747320746F6F2068696768005072DC
:101160006541726D3A20436865636B206D6167204D
:101170006669656C640050726541726D3A20426127
:10118000726F206E6F74206865616C7468790050AE
:10119000726541726D3A204261642047505320507D
:1011A0006F730050726541726D3A20436865636BDE
:1011B00020426F61726420566F6C746167650050E5
:1011C000726541726D3A20436865636B2046535FD8
:1011D0005448525F56414C55450050726541726DFE
:1011E0003A20436865636B20414E474C455F4D4153
:1011F000580041726D3A204261642047505320509C
:101200006F73005265616368656420436F6D6D6143
:101210006E6420232569004C6F77204261747465E9
:10122000727921008059464D54000042426E4E5A58
:101230000000000000000000000000547970652CE0
:101240004C656E6774682C4E616D652C466F726DCF
:1012500061740000000000000000000000000000B9
:10126000000000000000000000000000000000007E
:1012700000000000000000000000008117504152F3
:101280004D004E660000000000000000000000005D
:1012900000004E616D652C56616C756500000000A4
:1012A000000000000000000000000000000000003E
:1012B000000000000000000000000000000000002E
:1012C000000000000000000000000000000000001E
:1012D000000082234750530000424942634C4C6552
:1012E0006545650000000000005374617475732C3F
:1012F00054696D652C4E536174732C48446F702C87
:101300004C61742C4C6E672C52656C416C742C4192
:101310006C742C5370642C474372730000000000FF
:10132000000000000000000000831B494D55000034
:101330006666666666660000000000000000000049
:10134000477972582C477972592C4779725A2C4137
:101350006363582C416363592C4163635A00000056
:10136000000000000000000000000000000000007D
:10137000000000000000000000000000000000006D
:1013800084434D534700005A000000000000000055
:10139000000000000000004D657373616765000088
:1013A000000000000000000000000000000000003D
:1013B000000000000000000000000000000000002D
:1013C000000000000000000000000000000000001D
:1013D0000000000000000009134355525200684904
:1013E00068686866000000000000000000005468A3
:1013F000722C546872496E742C566F6C742C437541
:1014000072722C5663632C43757272546F740000B1
:1014100000000000000000000000000000000000CC
:1014200000000000000000000000000000000B0BA6
:101430004D4F54000068686868000000000000001C
:1014400000000000004D6F74312C4D6F74322C4D34
:101450006F74332C4D6F74340000000000000000E6
:10146000000000000000000000000000000000007C
:10147000000000000000000000000000000000006C
:1014800000000000000C1C4F46000000686842632A
:1014900063666665650000000000000044782C4427
:1014A000792C535175616C2C582C592C4C61742C2F
:1014B0004C6E672C526F6C6C2C5069746368000022
:1014C000000000000000000000000000000000001C
:1014D00000000000000000000000000005314E5434
:1014E000554E0045636666666666666666656500B7
:1014F00000000057504473742C57504272672C50B0
:101500004572582C504572592C4456656C582C44E1
:1015100056656C592C56656C582C56656C592C4484
:101520004163582C444163592C44526F6C2C4450F5
:1015300069740004194354554E0068636566636816
:1015400068686800000000000000546872496E2C52
:10155000536F6E416C742C426172416C742C575005
:10156000416C742C446573536F6E416C742C416EE6
:10157000674273742C43526174652C5468724F75C2
:10158000742C44435261746500000F154D414700AF
:1015900000686868686868686868000000000000A3
:1015A000004D6167582C4D6167592C4D61675A2C6D
:1015B0004F6673582C4F6673592C4F66735A2C4DD7
:1015C0004F6673582C4D4F6673592C4D4F66735AA6
:1015D000000000000000000000000000000000000B
:1015E000000611504D0000004242424848496842FE
:1015F000000000000000000052656E436E742C5223
:10160000656E426C772C466978436E742C4E4C6F35
:101610006E2C4E4C6F6F702C4D6178542C504D5485
:101620002C493243457272000000000000000000A7
:1016300000000000000000000814434D4400004278
:1016400042424242654C4C00000000000000004352
:10165000546F742C434E756D2C4349642C434F706A
:10166000742C50726D312C416C742C4C61742C4C68
:101670006E67000000000000000000000000000095
:101680000000000000000000000000000000000159
:1016900011415454000063636363634343000000DB
:1016A000000000000000526F6C6C496E2C526F6C91
:1016B0006C2C5069746368496E2C50697463682C93
:1016C000596177496E2C5961772C4E617659617753
:1016D000000000000000000000000000000000000A
:1016E0000000000000001125494E4156006363636D
:1016F0006666666969666600000000000042416C2B
:10170000742C49416C742C49436C622C41436F72B8
:1017100072582C41436F7272592C41436F72725A46
:101720002C474C61742C474C6E672C494C61742CCF
:10173000494C6E6700000000000000000003064DE9
:101740004F4445004D68000000000000000000000C
:10175000000000004D6F64652C5468724372730082
:101760000000000000000000000000000000000079
:101770000000000000000000000000000000000069
:101780000000000000000000000000000000000059
:10179000000000000A0353545254000000000000EF
:1017A0000000000000000000000000000000000039
:1017B0000000000000000000000000000000000029
:1017C0000000000000000000000000000000000019
:1017D0000000000000000000000000000000000009
:1017E00000000000000000000000000D044556004D
:1017F00000004200000000000000000000000000A7
:10180000000049640000000000000000000000002B
:1018100000000000000000000000000000000000C8
:1018200000000000000000000000000000000000B8
:1018300000000000000000000000000000000000A8
:101840000000140644313600004268000000000029
:1018500000000000000000000049642C56616C7517
:101860006500000000000000000000000000000013
:101870000000000000000000000000000000000068
:101880000000000000000000000000000000000058
:10189000000000000000000000150644553136002D
:1018A00042480000000000000000000000000000AE
:1018B00049642C56616C7565000000000000000052
:1018C0000000000000000000000000000000000018
:1018D0000000000000000000000000000000000008
:1018E00000000000000000000000000000000000F8
:1018F0001608443332000042690000000000000076
:101900000000000000000049642C56616C75650001
:1019100000000000000000000000000000000000C7
:1019200000000000000000000000000000000000B7
:1019300000000000000000000000000000000000A7
:1019400000000000000000170844553332004249EF
:1019500000000000000000000000000000004964DA
:101960002C56616C7565000000000000000000004E
:101970000000000000000000000000000000000067
:101980000000000000000000000000000000000057
:101990000000000000000000000000000000180827
:1019A00044464C5400426600000000000000000065
:1019B000000000000049642C56616C756500000051
:1019C0000000000000000000000000000000000017
:1019D0000000000000000000000000000000000007
:1019E00000000000000000000000000000000000F7
:1019F00000000000000E1C50494400004269696963
:101A000069696600000000000000000049642C4580
:101A100072726F722C502C492C442C4F75742C47C9
:101A200061696E000000000000000000000000007E
:101A300000000000000000000000000000000000A6
:101A4000000000000000000000000000100F444DE6
:101A50005000006363636343430000000000000024
:101A600000000044434D526F6C6C2C444D50526F3B
:101A70006C6C2C44434D507463682C444D5050742E
:101A800063682C44434D5961772C444D505961771C
:101A90000000000000000000000000000000000046
:101AA000000000121943414D0000494C4C6563632E
:101AB0004300000000000000000047505354696DCF
:101AC000652C4C61742C4C6E672C416C742C526FDD
:101AD0006C6C2C50697463682C59617700000000AD
:101AE00000000000000000000000000000000000F6
:101AF00000000000000000000000130545525200E5
:101B00000042420000000000000000000000000051
:101B1000005375627379732C45436F646500000050
:101B200000000000000000000000000000000000B5
:101B300000000000000000000000000000000000A5
:101B40000000000000000000000000000000000095
:101B50000047524F554E4420535441525400494E71
:101B6000530A002D00475F6F66663A2025342E32F7
:101B7000662C2025342E32662C2025342E32660A1F
:101B800000415F6F66663A2025342E32662C202590
:101B9000342E32662C2025342E32660A415F736360
:101BA000616C653A2025342E32662C2025342E3285
:101BB000662C2025342E32660A0043616C696272FD
:101BC0006174696E67206261726F6D657465720021
:101BD0006261726F6D657465722063616C696272B7
:101BE0006174696F6E20636F6D706C657465004C15
:101BF0006F73742047505321000A0A496E6974209C
:101C000041726475436F707465722056332E312DA6
:101C10007263320A0A467265652052414D3A2025A8
:101C2000750A004E6F2064617461666C6173682090
:101C3000696E7365727465640045524153494E473D
:101C4000204C4F4753000A507265737320454E5421
:101C5000455220332074696D657320746F2073744E
:101C600061727420696E746572616374697665204F
:101C700073657475700A000A526561647920746F27
:101C800020464C592000496E697469616C6973691A
:101C90006E672041504D2E2E2E00465720566572FD
:101CA0003A2025640A004669726D77617265206387
:101CB00068616E67653A2065726173696E67204579
:101CC0004550524F4D2E2E2E0A00646F6E652E0029
:101CD0006C6F61645F616C6C20746F6F6B20256C3E
:101CE0007575730A0045726173696E67206C6F6762
:101CF000730A004C6F6720657261736520636F6DB6
:101D0000706C6574650A00456E746572696E672053
:101D10004553432043616C6962726174696F6E3A26
:101D200020706C65617365207265737461727420D4
:101D300041504D2E0A004553432043616C69627245
:101D40006174696F6E206163746976653A207061B1
:101D50007373696E67207468726F74746C65207435
:101D600068726F75676820746F20455343732E0A3D
:101D700000434F4D5041535320494E495420455242
:101D8000524F5200636F6D6D616E642072656365C2
:101D9000697665643A2000556E6B6E6F776E2070C1
:101DA0006172616D6574657220696E646578202565
:101DB0006400556E6B6E6F776E20706172616D6539
:101DC00074657220252E31367300666C69676874FD
:101DD00020706C616E207570646174652072656A34
:101DE000656374656400666C6967687420706C6113
:101DF0006E207265636569766564004C6F67006488
:101E0000756D7000000000000000000000533B658D
:101E100072617365000000000000000000519165D0
:101E20006E61626C650000000000000000A84E6456
:101E3000697361626C6500000000000000A84E73C9
:101E40006574757000616363656C000000000000DC
:101E5000000000C459636F6D70617373000000006F
:101E6000000000FB56636F6D706173736D6F7400DB
:101E700000000009956572617365000000000000B4
:101E800000000049306672616D65000000000000CE
:101E9000000000B04C6D6F6465730000000000002E
:101EA000000000907C6F7074666C6F77000000001B
:101EB0000000003130726164696F000000000000B2
:101EC000000000637B72616E676500000000000027
:101ED000000000124E72657365740000000000007F
:101EE0000000007E447365740000000000000000E4
:101EF000000000774F73686F77000000000000005B
:101F00000000003947736F6E61720000000000002E
:101F10000000008D4D41726475436F7074657220CE
:101F200056332E312D726332006C6F6773000000E0
:101F3000000000000000009E3A7365747570000098
:101F400000000000000000A43A74657374000000F3
:101F500000000000000000983A7265626F6F740024
:101F600000000000000000CA3068656C70000000CE
:101F700000000000000000B33074657374006261FB
:101F8000726F00000000000000000000C29062615B
:101F90007474657279000000000000000A94636F99
:101FA0006D70617373000000000000004958677095
:101FB0007300000000000000000000007835696E2A
:101FC0007300000000000000000000005A576C6F12
:101FD0006767696E670000000000000061356D6F83
:101FE000746F727300000000000000009C876F7027
:101FF00074666C6F77000000000000005831707745
:102000006D0000000000000000000000F47A726122
:1020100064696F0000000000000000008B7A7265A8
:102020006C61790000000000000000005E32736FF8
:102030006E61720000000000000000009A45536FBE
:102040006E61722064697361626C65640A00536F2B
:102050006E61723A20256420636D0A00486974201D
:10206000456E74657220746F20657869742E0A0A53
:102070000052656C6179206F6E0A0052656C61795F
:10208000206F66660A00494E2020313A20256409F7
:10209000323A20256409333A20256409343A202550
:1020A0006409353A20256409363A20256409373A0F
:1020B0002025640A00494E3A20313A20256409322D
:1020C0003A20256409333A20256409343A202564EE
:1020D00009353A20256409363A20256409373A2023
:1020E000256409383A2025640A00436F6E6E6563E3
:1020F00074206261747465727920666F72207468EE
:10210000697320746573742E0A4D6F746F72732037
:1021100077696C6C207370696E20627920667261D9
:102120006D6520706F736974696F6E206F7264657E
:10213000722E0A46726F6E742028262072696768B4
:1021400074206F662063656E7465726C696E6529B4
:10215000206D6F746F722066697273742C207468BE
:10216000656E20696E20636C6F636B7769736520A1
:102170006F726465722061726F756E642066726141
:102180006D652E0A52656D656D62657220746F20F3
:10219000646973636F6E6E656374206261747465E5
:1021A0007279206166746572207468697320746541
:1021B00073742E0A416E79206B657920746F2065E7
:1021C0007869742E0A0054657374696E67206461BF
:1021D0007461666C617368206C6F6767696E670015
:1021E000494E530A002E2E2E646F6E650A00612040
:1021F00025372E34662025372E34662025372E3499
:102200006620672025372E34662025372E34662039
:1022100025372E346620742025372E3466200A0098
:102220004C61743A20002C204C6F6E20002C204111
:102230006C743A20256C646D2C2023736174733A9E
:102240002025640A002E00436F6D706173733A207D
:1022500000436F6D7061737320696E697469616C9E
:1022600069736174696F6E206661696C65642100D1
:10227000656E006469730061626C65640A0048659C
:102280006164696E673A20256C642C2058595A3A6B
:102290002025642C2025642C2025642C0958595AAB
:1022A0006F66663A2025362E32662C2025362E3271
:1022B000662C2025362E32660A00636F6D706173BE
:1022C00073206E6F74206865616C74687900736147
:1022D00076696E67206F66667365747300436F6D11
:1022E000706173730A004D6167204465633A20256D
:1022F000342E34660A004D6167206F66663A2025E9
:10230000342E34662C2025342E34662C2025342E91
:1023100034660A004D6F746F7220436F6D703A20FF
:10232000004F66660A005468726F74746C650043EF
:10233000757272656E74000A436F6D702056656326
:102340003A2025342E32662C2025342E32662C205D
:1023500025342E32660A00726164696F206E6F74D4
:102360002063616C696272617465642C20657869B0
:1023700074696E67000A4361726566756C21204D51
:102380006F746F72732077696C6C207370696E2143
:1023900020507265737320456E74657220746F20CF
:1023A00073746172742E0A00563A2025342E3466F6
:1023B0000A00563A2025342E34662C20413A202536
:1023C000342E34662C2041683A2025342E34660A97
:1023D000006E6F74206865616C74687900416C747C
:1023E0003A2025302E32666D2C205261773A202516
:1023F000662054656D70657261747572653A20254A
:102400002E31660A006C6F677320656E61626C65C1
:10241000643A20006E6F6E65002041545449545553
:1024200044455F4641535400204154544954554457
:10243000455F4D454400204750530020504D00203B
:102440004354554E00204E54554E0020494D5500E2
:1024500020434D44002043555252454E5400204DD8
:102460004F544F525300204F5054464C4F5700206A
:102470005049440020434F4D504153530020494E92
:102480004156002043414D45524100436F6D6D61FF
:102490006E64733A0A20206C6F67730A202073659C
:1024A0007475700A2020746573740A202072656246
:1024B0006F6F740A0A006F6E006F6666000A4F70D5
:1024C0003A5B6F6E2C206F66662C20302D335D0AD0
:1024D00000536F6E61720A00547970653A2025646A
:1024E0002028303D584C2C20313D4C562C20323D7C
:1024F000584C4C2C20333D48524C562900506172A8
:10250000616D65746572206E6F7420666F756E64A0
:102510003A20272573270A00526164696F0A004335
:1025200048313A202564207C2025640A0043483243
:102530003A202564207C2025640A004348333A2051
:102540002564207C2025640A004348343A20256411
:10255000207C2025640A004348353A202564207CED
:102560002025640A004348363A202564207C202533
:10257000640A004348373A202564207C2025640AF9
:10258000004348383A202564207C2025640A004610
:1025900072616D650A0051756164206672616D65D6
:1025A0000A0058206D6F64650A002B206D6F64650A
:1025B0000A0056206D6F64650A000A426174742037
:1025C0004D6F6E3A0A00766F6C747300766F6C74A0
:1025D0007320616E642063757200466C696768746D
:1025E000206D6F6465730A00506F732025643A098B
:1025F000002C090953696D706C653A20004F4646FE
:102600000A0053544142494C495A45004143524FF4
:1026100000414C545F484F4C44004155544F0047D3
:102620005549444544004C4F495445520052544C7E
:1026300000434952434C4500504F534954494F4E73
:10264000004C414E44004F465F4C4F4954455200A8
:10265000544F595F4D00544F595F410053504F52F2
:1026600054004D6F646528257529004F4E0A0049B6
:102670006E76616C696420636F6D6D616E642E208F
:1026800055736167653A20736574203C6E616D65B2
:102690003E203C76616C75653E0A00506172616D4A
:1026A000206E6F7420666F756E643A2025730A0081
:1026B00056616C7565206F7574206F662072616E4F
:1026C000676520666F72207479706520494E5438B2
:1026D0000A0056616C7565206F7574206F662072F4
:1026E000616E676520666F72207479706520494E4F
:1026F0005431360A0043616E6E6F74207365742026
:10270000706172616D65746572206F662074797096
:10271000652025642E0A000A275927203D2066617E
:1027200063746F72792072657365742C20616E79A1
:10273000206F74686572206B657920746F20616208
:102740006F72743A0A000A5265626F6F74204150CA
:102750004D000A434820362052616E676573206140
:10276000726520646976696465642062792031301D
:1027700030303A205B6C6F772C20686967685D0A9F
:10278000000A54554E453A0A002025642C204C6F0F
:10279000773A25312E34662C20486967683A25310E
:1027A0002E34660A000A0A526164696F2053657408
:1027B00075703A000A4D6F766520616C6C20636F0E
:1027C0006E74726F6C7320746F2065787472656DAF
:1027D00065732E20456E74657220746F2073617668
:1027E000653A20000A53617665640A000A4D6F64F9
:1027F000652073776974636820746F2065646974F9
:102800002C2061696C65726F6E3A2073656C65632C
:1028100074206D6F6465732C207275646465723A00
:102820002053696D706C65206F6E2F6F66660A00AD
:10283000780070002B0076000A4F703A5B782C2BE2
:102840002C765D0A000A45726173696E6720454502
:1028500050524F4D0A00646F6E650A0072616469E0
:102860006F206E6F742063616C696272617465645D
:102870000A00636F6D706173732064697361626CC9
:1028800065640A0054686973207265636F726473CB
:102890002074686520696D70616374206F6E2074A8
:1028A000686520636F6D70617373206F6620727549
:1028B0006E6E696E6720746865206D6F746F7273D9
:1028C0002E20204D6F746F72732077696C6C2073AB
:1028D00070696E210A486F6C64207468726F74743A
:1028E0006C65206C6F772C207468656E207261694E
:1028F000736520746F206D696420666F72203520C7
:102900007365632C207468656E20717569636B6CE8
:1029100079206261636B20746F206C6F772E0A5090
:102920007265737320616E79206B657920746F20F6
:10293000657869742E0A0A6D6561737572696E67D0
:1029400020636F6D7061737320767320004355525E
:1029500052454E540A005448524F54544C450A00B4
:102960007468726F74746C65206E6F74207A65720F
:102970006F0A00636865636B20636F6D70617373CA
:102980000A000A496E746572666572656E63652039
:1029900061742066756C6C207468726F74746C65F9
:1029A0002069732025642525206F66206D616720CE
:1029B0006669656C640A0A004661696C6564212079
:1029C000436F6D70656E736174696F6E20646973B7
:1029D00061626C65642E202044696420796F7520E3
:1029E000666F7267657420746F2072616973652009
:1029F000746865207468726F74746C6520686967A8
:102A00006820656E6F7567683F007468723A256468
:102A1000206375723A25342E3266206D6F742078EB
:102A20003A25342E316620793A25342E3166207AC3
:102A30003A25342E31662020636F6D7020783A2558
:102A4000342E326620793A25342E3266207A3A25A1
:102A5000342E32660A006F6E006F6666000A4F7091
:102A60003A5B6F6E2C6F66665D0A00496E69746929
:102A7000616C6973696E67206779726F7300536563
:102A8000747570204D6F64650A0A0A000A21576147
:102A9000726E696E672C20726164696F206E6F744C
:102AA00020636F6E6669677572656421000A205441
:102AB0007970652027726164696F27206E6F772EA9
:102AC0000A0A006D697373696E67206C6F67207402
:102AD0007970650A00616C6C004154544954554446
:102AE000455F464153540041545449545544455F51
:102AF0004D45440047505300504D004354554E003F
:102B00004E54554E004D4F444500494D5500434DE0
:102B1000440043555252454E54004D4F544F52536A
:102B2000004F5054464C4F570050494400434F4DBE
:102B30005041535300494E41560043414D45524187
:102B400000656E61626C650064756D70696E67200A
:102B5000616C6C0A00626164206C6F67206E756D39
:102B60006265720A000A41726475436F707465721F
:102B70002056332E312D7263320A4672656520521B
:102B8000414D3A2025750A0041504D203200010088
:102B9000454E41424C45000000000000000000008E
:102BA00000020000000000010154595045000000DF
:102BB0000000000000000000000003000000404092
:102BC0000102414354494F4E000000000000000044
:102BD00000000004000000803F0403414C545F4D9E
:102BE0004158000000000000000000000500000047
:102BF000C8420404524144495553000000000000FB
:102C0000000000000009000000164304054D415279
:102C100047494E00000000000000000000000D00C9
:102C20000000004000FF0000000000000000000065
:102C30000000000000000000000000000004005040
:102C40000000000000000000000000000000000084
:102C50000000000000000401490000000000000026
:102C6000000000000000000000040000000000045C
:102C7000024400000000000000000000000000000E
:102C800000000800000000000203494D4158000008
:102C900000000000000000000000000C0000000028
:102CA0000000FF0000000000000000000000000025
:102CB00000000000000000000000040053504545E3
:102CC00044000000000000000000000000110000AF
:102CD00000FA4304015241444955530000000000EA
:102CE0000000000000001D00000048430402535093
:102CF0004545445F555000000000000000000015ED
:102D00000000007A43040353504545445F444E009D
:102D10000000000000000000190000001643040439
:102D20004C4F49545F53504545440000000000009B
:102D3000000D000000FA430405414343454C0000E8
:102D40000000000000000000000021000000C84258
:102D500000FF000000000000000000000000000074
:102D6000000000000000000000040050000000000F
:102D70000000000000000000000000000000000053
:102D800000000401490000000000000000000000F5
:102D900000000000000400000000000202494D4154
:102DA00058000000000000000000000000000800C3
:102DB0000000000000FF0000000000000000000014
:102DC00000000000000000000000000000040247B6
:102DD00050535F4741494E000000000000000000D2
:102DE00024000000803F01034750535F55534500C6
:102DF0000000000000000000002C000000803F04E4
:102E0000045941575F50000000000000000000001E
:102E100000001C009A99993E040552505F50000032
:102E2000000000000000000000000020009A9999B6
:102E30003E010657494E445F4D41580000000000D6
:102E4000000000002D000000000005085452494D0C
:102E5000000000000000000000000000003D000035
:102E600000000001094F5249454E544154494F4E0C
:102E70000000000000002E0000000000040A434F84
:102E80004D505F4245544100000000000000002802
:102E900000CDCCCC3D010B4750535F4D494E5341C3
:102EA00054530000000000002F000000C04000FF4D
:102EB0000000000000000000000000000000000012
:102EC0000000000000000004024142535F505245E0
:102ED000535300000000000000000C000000000040
:102EE000040354454D5000000000000000000000A5
:102EF0000000000800000000000104414C545F4F36
:102F00004646534554000000000000001000000039
:102F1000000000FF000000000000000000000000B2
:102F2000000000000000000000000050414E494336
:102F30003A2041505F4261726F3A3A726561642093
:102F4000756E7375636365737366756C20666F72F7
:102F5000206D6F7265207468616E203530306D733E
:102F600020696E2041505F4261726F3A3A63616C32
:102F7000696272617465205B315D0D0A0050414EDB
:102F800049433A2041505F4261726F3A3A7265613B
:102F90006420756E7375636365737366756C206604
:102FA0006F72206D6F7265207468616E20353030ED
:102FB0006D7320696E2041505F4261726F3A3A63CF
:102FC000616C696272617465205B325D0D0A00504C
:102FD000414E49433A2041505F4261726F3A3A7222
:102FE00065616420756E7375636365737366756C74
:102FF00020666F72206D6F7265207468616E203577
:1030000030306D7320696E2041505F4261726F3ABB
:103010003A63616C696272617465205B335D0D0AAD
:103020000050414E49433A2041505F4261726F5F08
:103030004D533536313120646964206E6F742067DA
:1030400065742076616C696420535049206465760C
:1030500069636520647269766572210050414E494A
:10306000433A2041505F4261726F5F4D53353631B4
:103070003120646964206E6F742067657420766106
:103080006C6964205350492073656D617068726F7C
:1030900065210050414E49433A206661696C656480
:1030A00020746F2074616B65205F7370695F736556
:1030B0006D203130302074696D657320696E206138
:1030C00020726F772C20696E2041505F4261726FD1
:1030D0005F4D53353631313A3A5F757064617465CE
:1030E0000050414E49433A2041505F4261726F5F48
:1030F0004D533536313120646964206E6F7420671A
:1031000065742076616C6964204932432073656D73
:10311000617068726F65210050414E49433A2066E4
:1031200061696C656420746F2074616B65205F69F0
:1031300032635F73656D203130302074696D657363
:1031400020696E206120726F772C20696E204150BB
:103150005F4261726F5F4D53353631313A3A5F7578
:1031600070646174650050414E49433A2041505F9C
:103170004261726F5F4D53353631313A204E554CB6
:103180004C2073657269616C2064726976657200A7
:1031900050414E49433A2041505F4261726F5F4D4A
:1031A00053353631313A206661696C656420746F3D
:1031B0002074616B652073657269616C2073656D45
:1031C0006170686F726520666F7220696E69740045
:1031D00050414E49433A2041505F4261726F5F4D0A
:1031E000533536313120746F6F6B206D6F726520EF
:1031F0007468616E20313030306D7320746F2069D7
:103200006E697469616C697A6500010054524947BE
:10321000475F5459504500000000000000000000C6
:1032200000000001014455524154494F4E00000036
:103230000000000000000100000020410202534590
:1032400052564F5F4F4E0000000000000000000289
:10325000000080A2440203534552564F5F4F46463A
:103260000000000000000000040000808944040405
:1032700054524947475F444953540000000000003E
:103280000009000000000000FF0000000000000036
:10329000000000000000000000000000000000002E
:1032A0004661696C656420746F2067657420484DC1
:1032B00043353834332073656D6170686F72650013
:1032C00005014F4653000000000000000000000010
:1032D000000000110000000000040244454300000B
:1032E0000000000000000000000000001D000000C1
:1032F000000001034C4541524E0000000000000058
:1033000000000000000F000000803F0104555345FD
:10331000000000000000000000000000000021008C
:103320000000803F01054155544F444543000000D3
:103330000000000000000022000000803F01064D58
:103340004F54435400000000000000000000000043
:103350009E000000000005074D4F540000000000D3
:103360000000000000000000009F000000000001BD
:10337000084F5249454E5400000000000000000074
:103380000000100000000000010945585445524E4D
:10339000414C00000000000000000023000000007D
:1033A0000000FF000000000000000000000000001E
:1033B0000000000000000000000043757276653ACE
:1033C00000783A0009793A0009736C6F70653A0029
:1033D00043757276653A00783A0009793A000973C4
:1033E0006C6F70653A0043757276653A00783A0002
:1033F00009793A0009736C6F70653A00437572760B
:10340000653A00783A0009793A0009736C6F706583
:103410003A0043757276653A00783A0009793A00C5
:1034200009736C6F70653A0043757276653A00787F
:103430003A0009793A0009736C6F70653A00969109
:103440008C87827D78736E69645F5A55504B464114
:103450003C37322D28231E19140F0A050004090ECB
:1034600013181D22272C31363B40454A4F54595ED4
:1034700063686D72777C81868B90959A9FA4A9AEC4
:10348000B3AFAAA5A09B968F89837E78736E69647B
:103490005F5A55504B47423E3935302C27231F1B6E
:1034A00016120E09050103070B1014191D22262BF5
:1034B0002F34393D42474C51565B60656B70757BCC
:1034C00080868C92979DA3A9AFB2ACA6A09A948F48
:1034D000827C76706B65605C57524E4A46413D393E
:1034E00036322E2A26221F1B1713100C0804010245
:1034F000060A0E12161A1E22262B2F33383D41467D
:103500004B4F54595E64696F747A80878D949BA287
:10351000AAB1AEA69F979089826F68635E59555194
:103520004D4946423F3C3835322E2B2824211E1A65
:103530001714100D0A0603000306090D1014181CB9
:103540002024282C3034393D41464A4F54585D627E
:10355000676D737980878F98A2ACB0A59A90867DAD
:10356000766F55514D4A4744413F3C3A38353331E7
:103570002E2B292623201D1A1713100D0A070401CC
:10358000010306090D1013171A1E22262A2E3236A1
:103590003A3E42464A4E53575B5F64696E757C857E
:1035A000909FB2A08D7D7067605A553E3C3A393786
:1035B00036343332302F2E2C2A292724221F1C196F
:1035C0001613100D0A070402000305080A0D101354
:1035D000161A1D2125292D3135383C4043464A4DC8
:1035E000505356595B5E6165696F826D544D4A4711
:1035F0004442403E2E2E2D2C2C2B2A2A29292827C6
:1036000026252423211F1C1A1714100D0A07040154
:1036100001030507090C0E1013161A1D2124282C6E
:103620003033373A3D40424447484A4A4B4A48447F
:103630003D3019021621282B2D2E2F2E2E06090C77
:103640000F121517191B1C1B1811040E2231383CC0
:103650003C3C3A3835322F2B2824201C1915110DEB
:1036600009050102060A0E1115181C1F222527291B
:103670002A2B2B2926211911080004080A0A0A08F6
:1036800007040200030616181A1C1E20211F171219
:10369000516063625F5D5956524E4A46423E39352B
:1036A000312C2824201B17130E0A060102060A0FCC
:1036B00013171B1F23262A2D313437393C3D3F3F3A
:1036C0003E3D39352F28211C17151313131416A846
:1036D000ADB2B0ABA6A19C97928D88837E79746FB2
:1036E0006A65605B56514C47423D38332E29241F92
:1036F0001A15100B060103080D12171C21262B307A
:10370000353A3F44494E53585D62676C71767B8011
:10371000858A8F94999EA3A800000001FFFFE00016
:10372000000000000001FFFFF000000000000001A9
:10373000FFFFF800000000000001FFFFFE00000096
:1037400000000003FFFFFF00000000000003FFFF78
:10375000FFF000000000000FFFFFFFFE000000036D
:10376000FFFFFC000007FC00007FFFFFFC000000E3
:10377000000000001FFFFE0000000000241E1915BD
:1037800012100E0C0B0A090909080808070606059D
:10379000040404030404040000000000000000000E
:1037A0000027262123252325242722292A2A1C27EE
:1037B000282B33322725222C3331303700000000EC
:1037C000000000000000801140114071327334335A
:1037D0003213121132111293341314535231002147
:1037E000030406080B2D0A090705040241C011C095
:1037F0005112535473121112515273147332310017
:103800002102040506070809080607062403020129
:1038100002000120012011C0011100313213741384
:10382000143312F112D31251000102232506074668
:10383000442342210001E0A0313213B433111211AC
:10384000001120110052331213321120012224855D
:10385000042304020342410001E0A0511214131595
:10386000131534133251400120115213323100012B
:103870002223040504050423010382612001E011D1
:1038800080113213541514333231402102010031BA
:1038900072314102234423020122012201026140CC
:1038A00001A0118051121413341514331231400148
:1038B000020103020120521112202122430422415D
:1038C000022102A10001E020114051537413321172
:1038D00040210203020302010011121132001141C2
:1038E00022232221004102A18001601160110011F8
:1038F0003233741312114001620302032131121199
:1039000012114001020102030201000100E121E065
:10391000A01120121173343331200162036240126E
:103920001112110011010001020122000120010009
:10393000E1C001001180110012111312141334524E
:103940002001E202212031121100110001002102A8
:1039500001000140210002410001E060114011120C
:103960001113121413141332110021220342010205
:10397000210001001100121100112001004160011D
:1039800000C10001401120016011405112131213B7
:1039900014331231000142032201022100014011BF
:1039A00000310011000100010001A0E10001A001AF
:1039B00080112031529312110021C2210021403187
:1039C0000011201100010001E0E16001E01100118F
:1039D00072731231002142030102010220214011C1
:1039E000001120116001401160010001022102005C
:1039F0000120014001A05132131253321120010263
:103A00000182210021000100110031E000110011AC
:103A1000602100010201020101002120010001607A
:103A200011001152131214135211004182010200AD
:103A3000010021401100110011A0110031001120DE
:103A400081220101000201002100016011005213D6
:103A5000121314133231010002012201420100212C
:103A600000010001112011001120114071001140CE
:103A700001022102010201002102210001000100D6
:103A800011001211123312341332112001020142BB
:103A900001220100410001601120110011001100FC
:103AA0005112312061020122020002010281201123
:103AB00000121173341332110041020182010061BE
:103AC00000018011001100913231402142010202B7
:103AD00000626140115214135433310041820122BB
:103AE0000001020041000160911211525120012297
:103AF0000103010202008261005133541514333175
:103B0000002102012203424102A18031921332318D
:103B1000004122030201030022032201020140119D
:103B20001233953331010022010342032221220185
:103B3000026100011100115213125312310041228F
:103B40000322030023020302010221203213141670
:103B50001517161533112001620302030203220117
:103B6000A241401112531413141332110100020127
:103B70000203020302020002230203222120321464
:103B8000163718171513121100212203024302439E
:103B9000010302038221201112131415341514326B
:103BA00011000162230203004302034201201213A9
:103BB0001518193A1715131100210203026304E3C3
:103BC00002030203020102401213141517151634E2
:103BD0001220212243020300A32201001112151812
:103BE0001C1E1D19161311000201030203042304F5
:103BF0000324030443042304030203422011121488
:103C0000151718361513312102030223020324501D
:103C10005352463130302C302C33383430302C383D
:103C20002C312C302A334300245047434D442C314F
:103C3000362C302C302C302C302C302A36410D0ACA
:103C4000000096000000E1000080250000C0120086
:103C5000004F4B002075626C6F782000204D544B54
:103C600031392000204D544B20002053495246202A
:103C700000204E4D454120000100454E41424C453B
:103C800000000000000000000000000300000080B1
:103C90003F00FF00000000000000000000000000E6
:103CA000000000000000000000004750565447008C
:103CB0004750474741004750524D4300245055421A
:103CC000582C34302C6767612C302C312C302C3040
:103CD0002C302C302A37420D0A24505542582C34AF
:103CE000302C7674672C302C312C302C302C302C2E
:103CF000302A37460D0A24505542582C34302C7245
:103D00006D632C302C302C302C302C302C302A365B
:103D1000370D0A0024504D544B3331342C302C30A5
:103D20002C312C312C302C302C302C302C302C30B1
:103D30002C302C302C302C302C302C302C302A32A3
:103D4000380D0A24504D544B3333302C302A324531
:103D50000D0A24504D544B3331332C312A32450D4A
:103D60000A24504D544B3330312C322A32450D0A3F
:103D70000024505352463130332C302C302C312C0F
:103D8000312A32350D0A24505352463130332C310A
:103D90002C302C302C312A32350D0A245053524607
:103DA0003130332C322C302C302C312A32360D0A63
:103DB00024505352463130332C332C302C302C319C
:103DC0002A32370D0A24505352463130332C342CCA
:103DD000302C312C312A32300D0A245053524631C6
:103DE00030332C352C302C312C312A32300D0A2432
:103DF000505352463130332C362C302C302C312A53
:103E000032320D0A24505352463130332C382C3084
:103E10002C302C312A32430D0A245053524631356E
:103E2000312C312A33460D0A245053524631303654
:103E30002C32312A30460D0A00A0A20008A602004A
:103E4000000000000000A8B0B3A0A20008A600294E
:103E5000010000000000D0B0B3B56206010300010C
:103E60000601124F24505542582C34312C312C303D
:103E70003030332C303030312C33383430302C303B
:103E80002A32360D0A004572726F723A2041505F35
:103E900048414C5F4156523A3A415652416E616C2C
:103EA0006F67496E206F7574206F66206368616E5E
:103EB0006E656C730D0A0050414E49433A2073639E
:103EC000686564756C65723A3A73797374656D5F91
:103ED000696E697469616C697A65642063616C6C90
:103EE00065646D6F7265207468616E206F6E6365C6
:103EF00000474F494E4720444F574E20464F5220CF
:103F000041205245424F4F540D0A0050414E494303
:103F10003A2041565253656D6170686F72653A3A46
:103F200074616B6520757365642066726F6D2069BE
:103F30006E736964652074696D65722070726F6359
:103F40006573730050414E49433A20535049302025
:103F50007472616E7366657220636F6C6C697369ED
:103F60006F6E0050414E49433A20535049302077FC
:103F70007269746520636F6C6C6973696F6E00049D
:103F80000154435F58590000000000000000000089
:103F90000000160000002040040254435F5A000055
:103FA000000000000000000000000067000000A00A
:103FB0004000FF00000000000000000000000000C2
:103FC00000000000000000000000020050524F44BA
:103FD0005543545F4944000000000000001A0000EF
:103FE00000000005014143435343414C00000000E1
:103FF0000000000000001C0000000000050241431A
:10400000434F464653000000000000000000002817
:10401000000000000005034759524F464653000078
:104020000000000000000000340000000000010457
:104030004D5055364B5F46494C54455200000000E8
:104040000040000000000000FF0000000000000031
:104050000000000000000000000000000000000060
:10406000496E6974204779726F002A000A67797275
:104070006F20646964206E6F7420636F6E76657262
:1040800067653A20646966663D2566206470730A38
:1040900000496E697420416363656C002A0020004A
:1040A0006F6E20697473204241434B00506C616312
:1040B000652041504D20255320616E64207072654B
:1040C000737320616E79206B65792E0A004F6666E6
:1040D000736574733A20252E326620252E326620B1
:1040E000252E32660A005363616C696E673A20259B
:1040F0002E326620252E326620252E32660A004397
:10410000616C6962726174696F6E20737563636557
:10411000737366756C0A0043616C696272617469DD
:104120006F6E204641494C45440A006C6576656CCB
:10413000006F6E20697473204C4546542073696487
:1041400065006F6E2069747320524947485420738C
:10415000696465006E6F736520444F574E006E6F43
:10416000736520555000FB00003E000B0036000137
:1041700000020003000000650054FFEF0000FA8019
:10418000000B12820001000200000000000000008D
:1041900000000000000000280000FFFF4581FFFF35
:1041A000FA7200000000000003E8000000010001B6
:1041B0007FFFFFFE8001001B0000000000000000E8
:1041C000000000000000003E03304000000002CA72
:1041D000E3093E80000020000000000000004000D5
:1041E00000006000000041FF000000000B2A0000FA
:1041F000165500002182FD872650FD800000001F1B
:104200000000000580000000000000010000000226
:10421000000000030000400000000000046F0002E6
:10422000653200005EC04000000000000000000099
:10423000000000000000FB8C6F5DFD5D08D9007C74
:10424000733B006C12CC3200139D3200D0D632008A
:104250000800400001F4FFE6807902000000000041
:10426000D0D600002710FB00000040000000000036
:10427000000000000000000000010000000000003D
:104280000100010000000000FA36FFBC308E00057E
:10429000FBF0FFD95BC8FFD09ABE000010A9FFF465
:1042A0001EB200CEBBF700000001000000040002B7
:1042B00000020200000CFFC280000001800000CF5D
:1042C000800040000000000000010000000000002D
:1042D00006000000001400000000000000000000C4
:1042E00000000000000000000000000000000000CE
:1042F00000000000000000000000000000000000BE
:1043000000000000000000000000033F68B679359F
:1043100028BCC67ED16C8000000040000000000078
:10432000B26A000000000000000000000000000071
:104330003FF000000030000000000000000000001E
:10434000000000000000000000000000000000006D
:104350000000000000000000254D002F706D0000DF
:1043600005AE000C02D00000000000650054FFEF15
:1043700000000000000000000100004400000000F8
:104380000C00000001000000000000650000005467
:104390000000FFEF0000000000000000000000002F
:1043A00000000000000040000000000000000000CD
:1043B00000000000000040000000000000000000BD
:1043C00000000000000000000001000000020000EA
:1043D00000000000000000000000000000000000DD
:1043E00000000000000000000000000000000000CD
:1043F000000000000000001B0000000000000000A2
:1044000000000000000000000000000000000000AC
:10441000000000000000000000000000000000009C
:10442000000040000000001B000000000000000031
:10443000000000000000000000000000000000007C
:10444000000000000000000000000000000000006C
:10445000000000000000000000000000000000005C
:10446000000000000000D8DCBAA2F1DEB2B8B4A8A7
:104470008191F74A907F916AF3F9DBA8F9B0BAA06D
:1044800080F2CE81F3C2F1C1F2C3F3CCA2B280F1CB
:10449000C6D880BAA7DFDFDFF2A7C3CBC5B6F087E7
:1044A000A2942448703C95406834589B78A2F183CC
:1044B000922D557DD8B1B4B8A1D09180F270F3702F
:1044C000F27C80A8F101B09887D943D886C988BA10
:1044D000A1F20EB89780F1A9DFDFDFAADFDFDFF2FC
:1044E000AAC5CDC7A90CC92C97979797F1A989267A
:1044F0004666B0B4BA80ACDEF2CAF1B28C02A9B69C
:104500009800890E161EB8A9B4992C547CB08AA8BC
:1045100096365676F1B9AFB4B083C0B8A89711B14A
:104520008F98B9AFF0240844106418F1A329557D81
:10453000AF83B593AFF0002850F1A3869F61A6DA50
:10454000DEDFD9FAA38696DB31A6D9F8DFBAA68FCB
:10455000C2C5C7B28CC1B8A2DFDFDFA3DFDFDFD8FF
:10456000D8F1B8A8B286B4980D355DB8AA98B087CE
:104570002D353DB2B6BAAF8C96198F9FA70E161E79
:10458000B49AB8AA872C547CB9A3DEDFDFA3B1802C
:10459000F2C4CDC9F1B8A9B499830D355D89B9A329
:1045A0002D557DB593A30E161EA92C547CB8B4B01E
:1045B000F19783A81184A50998A383F0DA2408440D
:1045C000106418D8F1A529557DA58595021A2E3AB3
:1045D000565A4048F9F3A3D9F8F0988324084410B8
:1045E00064189782A8F111F098A224084410641866
:1045F000DAF3DED883A59401D9A302F1A2C3C5C71B
:10460000D8F18492A24DDA2AD84869D92AD86855B7
:10461000DA32D85071D932D8705DDA3AD85879D9AF
:104620003AD87893A34DDA2AD84869D92AD8685558
:10463000DA32D85071D932D8705DDA3AD85879D98F
:104640003AD878A88A9AF02850789EF38818F19F73
:104650001D98A8D908D8C89F129EF315A8DA121081
:10466000D8F1AFC8978734B5B994A421F3D922D82B
:10467000F22DF3D92AD8F235F3D932D881A460606B
:1046800061D961D86C6869D969D8747071D971D8E9
:10469000B1A384193D5DA3831A3E5E93103081104F
:1046A00011B8B0AF8F94F2DA3ED8B49AA88729DA5D
:1046B000F8D8879A35DAF8D8879A3DDAF8D8B1B9B8
:1046C000A49885022E56A581000C14A397B08AF1F8
:1046D0002DD928D84DD948D86DD968D8B1840DDAEC
:1046E0000ED8A32983DA2C0ED8A3844983DA2C4C64
:1046F0000ED8B8B0A88A9AF520AADADFD8A840AABE
:10470000D0DADED8A860AADAD0DFD8F19786A8314F
:104710009B069907AB9728889BF00C201440B8B0F3
:10472000B4A88C9CF0042851791D301438B282ABA7
:10473000D0982C505078789BF11AB0F08A9CA82918
:1047400051798B2951798A2470598B2058718A4468
:1047500069388B3940688A6448318B304960A58854
:10476000200971584468113964493019F1AC002CA2
:10477000547CF08CA804285078F1889726A8599882
:10478000AC8C02264666F0899CA829517924705980
:10479000446938644831A98809205970AB11384000
:1047A00069A8193148608CA83C415C207C00F187E5
:1047B000981986A86E767EA999882D557D9EB9A3F5
:1047C0008A228A6E8A568A5E9FB183062646660EC4
:1047D0002E4E6E9DB8AD002C547CF2B18CB499B9BC
:1047E000A32D557D8191AC38AD3AB58391AC2DD9CF
:1047F00028D84DD948D86DD968D88C9DAE29D90410
:10480000AED851D904AED879D904D881F39DAD0082
:104810008DAE1981ADD901D8F2AEDA26D88E9129A4
:1048200083A7D9ADADADADF32AD8D8F1B0AC89919D
:104830003E5E76F3AC2E2EF1B18C5A9CAC2C28281F
:10484000289CAC3018A8988128343C9724A7283499
:104850003C9C24F2B089AC912C4C6C8A9B2DD9D80D
:10486000D851D9D8D879D9D8D8F19E88A331DAD8F7
:10487000D8912DD928D84DD948D86DD968D8B183C9
:1048800093353D8025DAD8D88569DAD8D8B49381B4
:10489000A328343CF3AB8BF8A391B609B4D9ABDEB3
:1048A000FAB0879CB9A3DDF1A3A3A3A395F1A3A3B9
:1048B000A39DF1A3A3A3A3F2A3B49080F2A3A3A307
:1048C000A3A3A3A3A3A3A3B2A3A3A3A3A3A3B087B8
:1048D000B599F1A3A3A398F1A3A3A3A397A3A3A31B
:1048E000A3F39BA3A3DCB9A7F1262626D8D8FF0003
:1048F00000000000000000000000000000000000B8
:1049000000000000000000000000000000000000A7
:104910000000000000000000000000000000000097
:104920000000000000000000000000000000000087
:104930000000000000000000000000000000000077
:104940000000000000000000000000000000000067
:104950000000000000000000000000000000000057
:104960000000000000004D50553630303020737488
:104970006172747570206661696C65643A206E6F4F
:1049800020646174612072656164790050414E4910
:10499000433A206661696C656420746F20626F6FB2
:1049A00074204D50553630303020352074696D6597
:1049B000730050414E49433A2041505F496E657241
:1049C0007469616C53656E736F725F4D505536300C
:1049D00030303A3A75706461746520776169746546
:1049E000642035306D7320666F72206461746120BD
:1049F00066726F6D20696E746572727570740050A6
:104A0000414E49433A2041505F496E657274696175
:104A10006C53656E736F725F4D5055363030303A5F
:104A20003A5F646174615F7265616479206661698F
:104A30006C656420746F2074616B6520535049204D
:104A400073656D6170686F72652073796E636872EB
:104A50006F6E6F75736C790050414E49433A204137
:104A6000505F496E65727469616C53656E736F72E5
:104A70005F4D5055363030303A3A5F706F6C6C5F36
:104A800064617461206661696C656420746F207470
:104A9000616B65205350492073656D6170686F725A
:104AA000652073796E6368726F6E6F75736C7900D1
:104AB0004D5055363030303A20556E61626C65206D
:104AC000746F206765742073656D6170686F7265BF
:104AD000004661696C656420746F20626F6F74209A
:104AE0004D50553630303020352074696D65730077
:104AF00054696D6564206F75742077616974696E9F
:104B00006720666F72207573657220726573706FAF
:104B10006E7365002D00256C642E2530376C6400A3
:104B200025535D200068656C7000657869740049E4
:104B30006E76616C696420636F6D6D616E642C20AC
:104B400074797065202768656C702700436F6D6D00
:104B5000616E64733A00202025530A00010154431A
:104B600052565F454E41424C450000000000004057
:104B7000000000803F0102544352565F4D494450AB
:104B800043540000000000004100000050420103B7
:104B9000544352565F4D41585043540000000000AA
:104BA0000042000000BA4202055350494E5F415294
:104BB0004D45440000000000000043000000C842D2
:104BC00000FF0000000000000000000000000000E6
:104BD00000000000000000000041505F4D6F746F46
:104BE00072733A206661696C656420746F20637229
:104BF00065617465207468726F74746C6520637588
:104C00007276650001004D4F444500000000000031
:104C10000000000000000036000000000005015206
:104C200045545241435400000000000000000000C1
:104C300047000000000005024E45555452414C000B
:104C4000000000000000000000530000000000050C
:104C500003434F4E54524F4C000000000000000030
:104C600000005F00000000000104535441425F5205
:104C70004F4C4C000000000000000033000000001A
:104C8000000105535441425F54494C540000000058
:104C900000000000340000000000010653544142AF
:104CA0005F50414E00000000000000000035000091
:104CB000000000010752435F494E5F524F4C4C00C9
:104CC0000000000000003700000000000208414E14
:104CD000474D494E5F524F4C000000000000003A23
:104CE0000000A08CC50209414E474D41585F524F0C
:104CF0004C000000000000003C0000A08C45010AB0
:104D000052435F494E5F54494C540000000000007C
:104D100000380000000000020B414E474D494E5F35
:104D200054494C000000000000003E0000A08CC56B
:104D3000020C414E474D41585F54494C0000000061
:104D4000000000400000A08C45010D52435F494E19
:104D50005F50414E000000000000000039000000DC
:104D60000000020E414E474D494E5F50414E00003B
:104D70000000000000420000A08CC5020F414E4719
:104D80004D41585F50414E000000000000004400BB
:104D900000A08C4501104A535449434B5F53504483
:104DA0000000000000000046000000000000FF00BE
:104DB00000000000000000000000000000000000F3
:104DC000000000000000454550524F4D2066756CB4
:104DD0006C0025733A2025640A0025733A20256467
:104DE0000A0025733A20256C640A0025733A2025B1
:104DF000660A00556E6B6E6F776E20636F6E766518
:104E00007273696F6E20272553270A004261642060
:104E1000636F6E76657273696F6E2074797065204A
:104E2000272553270A000100524F4C4C0000000078
:104E300000000000000000000000000000803F01B2
:104E400001504954434800000000000000000000E9
:104E5000000001000000004001025448524F545429
:104E60004C4500000000000000000003000000406E
:104E700040010359415700000000000000000000FD
:104E80000000000002000000804000FF0000000061
:104E90000000000000000000000000000000000012
:104EA000000000010050494E00000000000000001A
:104EB00000000000000000000000504100FF000062
:104EC00000000000000000000000000000000000E2
:104ED000000000000001004445425547000000006A
:104EE000000000000000000000000000000000FFC3
:104EF00000000000000000000000000000000000B2
:104F0000000000000000005363686564756C657202
:104F100020736C6970207461736B5B25755D20284C
:104F200025752F25752F2575290A0053636865643B
:104F3000756C6572206F76657272756E2074617320
:104F40006B5B25755D202825752F2575290A005076
:104F5000414E49433A2044617461466C6173682054
:104F60005350494465766963654472697665722079
:104F70006E6F7420666F756E640050414E49433AFF
:104F80002044617461466C617368205350494465E4
:104F9000766963654472697665722073656D6170C8
:104FA000686F7265206973206E756C6C00554E4B8E
:104FB0004E2C2025750A0025532C20002564002541
:104FC0007500256400257500256C6400256C75004E
:104FD000256600252E326600252E326600252E32EB
:104FE0006600252E326600257300257300257300A8
:104FF0002C2000444620706167652C206C6F672070
:1050000066696C6520232C206C6F67207061676572
:105010003A2025752C090025752C090025750A00F4
:105020004E6F2064617461666C61736820696E7391
:105030006572746564004D616E7566616374757246
:1050400065723A2030782530327820202044657609
:105050006963653A203078253034780A004E756DE2
:1050600050616765733A202575202050616765534C
:10507000697A653A2025750A000A4E6F206C6F67C1
:10508000730A0A000A2575206C6F67730A004C6F5B
:10509000672025752C2020202073746172742025D0
:1050A000752C202020656E642025750A00327C89CD
:1050B00000EDD968770000005900000000000000F2
:1050C00000D69FDCA81817AA90437327F6B968ED9D
:1050D000F4DED409FEE61C1C84DDE80B992927D6F2
:1050E000DF8D210F036418EFEE1EF0B7828200946B
:1050F0001500F37C0000001400988F00007F6A0008
:10510000000000000000E7B73F360000000000008C
:1051100000AF669ED0385DD36C20B9EB5D7C7C77A8
:10512000040000000000000000000000000000007B
:10513000000000000000000000000000000000006F
:105140002AF10F86DBD0BC5416131586004E44BDE1
:105150007F9A15159001EA49B51653A70000000083
:10516000000000000000000000000000000000003F
:10517000000000000000000000000000000000002F
:10518000000000000000000000000000000000001F
:10519000000000000000000000000000000000000F
:1051A000000000000000CC31AA2C532E00080000A3
:1051B00000000000000000000000000000000000EF
:1051C0000000F8510000010146554E4354494F4E2E
:1051D0000000000000000000001D000000000000B2
:1051E000FF000000000000000000000000000000C0
:1051F000000000000000000002004D494E000000C9
:1052000000000000000000000000000A000080898B
:105210004402015452494D0000000000000000000B
:10522000000000000C000080BB4402024D41580009
:10523000000000000000000000000000000E000060
:1052400080ED4401035245560000000000000000BC
:1052500000000000000010000000803F0205445ADA
:10526000000000000000000000000000000000112D
:10527000000000000000FF0000000000000000002F
:105280000000000000000000000000000000DCDF63
:10529000E1E3E6E8EBEDEFF2F4F7F9FCFE000305DD
:1052A000080A0C0F111416181B1D202224272C7617
:1052B000D888674F0823C1DFAE59B1B796E5E453EC
:1052C000C63A51997696E6C28426898C9B62407CC8
:1052D0006FFCBC9C9F40BAA56FA590055A2A5C93B1
:1052E0006B6C676DC11BE0E40D47F520E6B5D0EDB2
:1052F000902E009435770080841E0000204E000020
:1053000000C833333333986E128341EF8D21893BCC
:10531000E655CFFEE6DBD1844B38F77C1D90A4BB6D
:10532000E4243284725E8100C9F1ECA1E53D6E6136
:105330006E00696E660001021020200808102040EF
:105340001020408002010201080402010102040849
:1053500010204080804020100804020180040201D7
:105360008040201008040201080402010102040820
:1053700010204080010204081020408040050505EF
:1053800005070508080808020202020A0A080804BC
:1053900004040401010101010101010303030303EA
:1053A000030303040707070C0C0C0C0C0C0C0C0279
:1053B00002020206060606060606060B0B0B0B0B80
:1053C0000B0B0B05000020002300260029002C00F9
:1053D0002F00320000010000030106010901000056
:1053E0002200250028002B002E003100340002018D
:1053F0000000050108010B01000021002400270026
:105400002A002D00300033000101000004010701D3
:105410000A01494E46494E4954594E414E0000201A
:10542000410000C84200401C4620BCBE4CCA1B0EB6
:105430005AAEC59D74CDCCCC3D0AD7233C17B7D10D
:105440003877CC2B329595E6241FB14F0A000D9486
:1054500004250D940D240D9441620D94B25B0D94BE
:10546000BAAB0D9490280D94A22C0D947A1C0D9437
:1054700020290D94C3160D940D5A0D94867D0D941C
:10548000346D0D94771F0D9411630D94C11C0D9410
:1054900000240D9461940D9400260D94D83B0D9436
:1054A000F2120D94F8850D946E510D94A49E0D94F6
:1054B00096770D94692B0D94BE930D942F240D9423
:1054C00071760D94AD010D9474250D9491240D9475
:1054D00053950D947A250D94BC600D9407450D9459
:1054E000464F0D9410940D94FB120D942F1B0D94A8
:1054F00063170D9403A00D94BE940D94385E0D9423
:105500000A940D94CF210D94367E0D944F1B0D946B
:10551000F75A0D9482170D9405140D940B440D94B5
:10552000681B0D9474180D9458260D94EF920D94E9
:105530009F170D94282B0D9483240D9457140D94CC
:105540008E1B0D947B180D9467290D9454170D94A0
:10555000A88D0D94BA0D0D94BA050D94A8010D9463
:1055600021240D94371B0D94F17C0D942A2A0D945F
:105570001A180D9429240D94242A0D94F52B0D94BA
:10558000071B0D9439240D94C31C0D947B770D9447
:105590007F990D94C7290D9481920D949C790D9457
:1055A0006C2B0D94FC2A0D94E0130D94EB240D94B8
:1055B000C5290D94F75B0D947D910D949E880D94F3
:1055C000F1370D94255B0D9427260D943F920D9491
:1055D00025370D940E250D943F240D94BE250D9472
:1055E000F5240D94CF0E0D94D2210D94A71B0D948C
:1055F000DF880D9445250D94F62A0D94FA240D9418
:105600001C120D949D770D948F2A0D94C9160D943C
:10561000C1A00D94A28D0D9484620D94E5230D9488
:105620005A590D94D8210D94B8930D942A140D94C1
:105630004A250D944F990D941A130D948F230D94B0
:105640006F240D944E2B0D9422120D9496280D94D8
:10565000605A0D94A1160D94487A0D942B370D9431
:10566000351F0D9425240D94B95A0D94CE2A0D940E
:105670005B070D943C1F0D94D6220D94B4050D9438
:10568000E0910D94871B0D9477180D94C4240D940C
:10569000642B0D94CE120D9403660D94E4270D94A3
:1056A0009B950D94E94E0D94A1240D9431620D94B7
:1056B00047620D9436590D949B240D94B0590D9466
:1056C000004B0D94970F0D94FD9F0D941B2A0D9484
:1056D000DC240D94875B0D94F52A0D94180F0D941E
:1056E00024170D947A970D94B60A0D94AB2B0D9454
:1056F000C7920D944F5C0D943D520D9429830D94E7
:10570000385B0D9449880D942D260D948D5A0D9477
:105710000A930D9417200D942A5A0D94212A0D9462
:105720007E8B0D9491590D94007A0D94F0890D940F
:105730008C5C0D94DD5B0D946A5B0D949F2A0D9437
:10574000D4260D94262F0D94E1980D943C0F0D94C2
:10575000F6130D945C920D9451650D940D8B0D9480
:1057600009660D948B030D949A240D941E5D0D947F
:1057700081490D94893B0D942A170D94F2850D945F
:105780006D250D946D120D9484090D94542B0D9478
:1057900071990D94E95A0D943B250D94240A0D94AA
:1057A000EA230D941E2A0D942E2B0D9488300D940F
:1057B00068850D944B2B0D94C82B0D9456890D9430
:1057C000D9880D94568A0D943A210D94600F0D944A
:1057D00028930D94310E0D94188F0D94E1160D94AD
:1057E000557B0D943F990D94C90E0D94C54B0D94A6
:1057F0009C250D94371A0D94688C0D94355C0D948E
:105800006F2B0D944B140D946B240D94794B0D94C8
:1058100014250D94F2900D949F500D94DC2E0D9450
:10582000AE2A0D94042A0D94745B0D940E5C0D94B5
:10583000391F0D94FF240D94DE800D945A260D948B
:105840003D1C0D94C62A0D94281C0D94431B0D94E9
:105850003A7D0D94C7350D94A6130D9480970D9441
:10586000DE3B0D94075F0D942B1B0D94005A0D9495
:10587000311B0D94B8940D94CA5A0D94B4170D941D
:105880005A100D94AD200D94872B0D9478990D949A
:10589000178B0D94142B0D94FDA00D9436970D9439
:1058A000E4250D94C1270D9489770D948C260D94D1
:1058B00062240D94E72B0D94C4250D9447630D9439
:1058C00037620D9418280D94951F0D9491030D9433
:1058D000FC760D9445190D9451140D9488120D9475
:1058E00079240D949C210D94401F0D94671F0D94F5
:1058F000C2140D9417240D9457650D94205A0D94DD
:105900007F2B0D9411650D94A35B0D949E770D94E0
:1059100040250D94591F0D94803E0D9434100D9424
:1059200053760D94B8410D946C320D943E690D94EC
:1059300007830D948B240D94274A0D94BF250D9455
:105940005E200D94EF230D94BE160D9499120D94C4
:105950003E960D94C8250D94301B0D940D250D9485
:105960009C2C0D941F170D9433240D9474120D94D8
:1059700045160D94ED130D943C170D94571C0D9482
:10598000C36D0D9455590D94CB4B0D94D7230D94A5
:10599000F0240D94131B0D9449650D9448790D94D2
:1059A0006A280D9432250D94CB250D9495240D94E1
:1059B000EA890D94064B0D94561F0D943D760D9477
:1059C000CD350D94611F0D94D3910D941B6E0D94E4
:1059D000E38C0D949E9B0D94D2550D94D4700D9430
:1059E000F8910D946A290D941A920D945C260D94E9
:1059F0005D7E0D944B0D0D949A770D9421990D9425
:105A000096250D9404960D941E8F0D94E4130D9419
:105A10001C5C0D940D450D94717A0D94C61B0D946C
:105A20004E440D9479810D9442170D94BA540D94FF
:105A3000CE260D94C55B0D944C4A0D94D1690D94FE
:105A40008E290D943D900D9469760D94D78E0D940A
:105A5000E4990D94A7990D94E8430D943F620D9439
:105A6000134E0D9419490D945A220D941A170D9442
:105A700050890D94718F0D944A9E0D94579B0D94EF
:105A80007C820D947D120D949A920D94F7210D94C1
:105A90004A6C0D9458690D945E260D944D280D9412
:105AA0005E250D941B240D949A580D94AB120D9401
:105AB000AA410D949A5A0D94932B0D9409240D9498
:105AC000F3160D9413240D94DC590D94AC910D94A0
:105AD00076960D942A0F0D94D1470D94FA1B0D94D0
